{"status":"success","data":{"network":"BTC","txid":"dcba20fdfe34fe240fa6eacccfb2e58468ba2feafcfff99706145800d09a09a6","blockhash":"00000000000001788be82209d895ffb63fae64fed5e31023fa8783010ecd9202","confirmations":412960,"time":1334497367,"inputs":[{"input_no":0,"value":"53.00000000","address":"1QAHGtVG5EXbs1n7BuhyNKr7DGMWQWKHgS","type":"pubkeyhash","script":"3045022075dca686b5fb775cb2dbf289231ee358f633d5882dfbadaced6ccbac8f3f4391022100d249ae93ad123c6d6180d076b717f324902d880956cf77fb21e485888ac931f701 04c4d3d61d2b198bb70c6b2ecd16517682426a21a3a07bfb11f0fb9fe2fc78f0665734fd03615de28cce6ae4c4c5712dee13cec6e3dff836c786d590c43024552c","witness":null,"from_output":{"txid":"ea630fd797ada09e89b595b19103229ab135a3c4524be930a85256c30dde3b28","output_no":1}},{"input_no":1,"value":"20.20000000","address":"1DV9k4MzaHSHkhNMxHCjKQuXUwZXPUxEwG","type":"pubkeyhash","script":"30450220157dcb54113b61b92b92190fc5bae8836addb14b9728bead7a1ef57f169b8174022100adddd2cce36b16bddd6cb2fecebd307e74f830be69969e4e6ccc3a548668ca7e01 040905de5927a2b012c29e1045e0411291db61eaace69149b77897e08b8b34f6a96af0a457819024598771d10732e3fcf61daa4314f4d1a26fe8fafc0aefd49990","witness":null,"from_output":{"txid":"8697becae80e6ee808a368a52754f449bca0fa865cf9e90490a71668cb922268","output_no":0}},{"input_no":2,"value":"49.75000000","address":"1NaNy4UwTGrRcvuufHsVWj1KWGEc3PEk9K","type":"pubkeyhash","script":"304502205a0f7ea7f131767d389675c8cd4e8644914e9cf8830d8e24a14bf4a7015107b1022100e7890dd629c66fa4a781e91927acebf1199a5546cbbacf305811442b3a46eb5301 04a5e7d58d6b7b82b9c5a88646c6d3792ccd405b7d6a4799a43c43297c8b38951d261c835ccaaea6e1b4d5e4d5f429d0b7ccc802ec11d9ce5c9e4a00b111453a05","witness":null,"from_output":{"txid":"2f5682ea2e40b7c9ae128f5d6836eaf8908a78d303ff7ad4cd8c52e8c43e90c1","output_no":1}},{"input_no":3,"value":"50.00000000","address":"16h7kaoG82k8DFhUgodf4BozYSA5zLNRma","type":"pubkeyhash","script":"30450221009a8687e92bd45fef7745b4b148c3383ca496cad4ee715b5a9c0d58f898430b050220727a0c6d79eb00d6eae55cc16797e5feec077ccbfba1de2bc0cf45f8e0bcfd2e01 045f6f0323e6379038fbfe06583f88f43b83851597e44be54158d49c8d012f401219e2ae35721a7abefdf573df4e348ff08c2e0c3e4964ce2ebbe7a081676784db","witness":null,"from_output":{"txid":"ffb4b731ef9ca6686546ce74c4398e18cf32e83781d46da8a5cb8738e713446b","output_no":1}},{"input_no":4,"value":"55.56000000","address":"16boodvrd8PVSGPmtB87PD9XfsJzwaMh3T","type":"pubkeyhash","script":"304502205e86c36a983a88030f5170c42689b4faa8163721db01d87750dcabc0c642f92702210086e76a64c5e3ee72dc1cc99443059332e37bf42a518c3f03e825edf9506a8bd601 04bced6be7db7d2841877d0bd39b98808670021bb3b6ec2fc9d85bf890c415e18ec40003eb676849572233bd79b5d935323bce3e47147a930cdda3778e61cad6df","witness":null,"from_output":{"txid":"312287577be85614ab30ee2a1cd93f802470deb03652dbf5f134a72d40453d64","output_no":1}},{"input_no":5,"value":"71.50000000","address":"1KVry787zTL42uZinmpyqW9umC4PbKxPCa","type":"pubkeyhash","script":"304502203241f475e55af2608979382b4419e22e0333379918356705414c15cfdb90b6c2022100ffda7fb68231ef00fb948077fc5fceff943c0578c62533bad1c6ba2a4af289e001 04ca17c99819c26d60b6e2331732ebaacfac44a919f51e599658164d537c136c24351dac7fa835bf5e1567d4efca2bc8f34cc4c39722d0336a3801b9224bea4562","witness":null,"from_output":{"txid":"6a13dc3200d48b044698f1b8b7836bb920edb8360ff62f6182d93404b2d0b2d5","output_no":1}}],"outputs":[{"output_no":0,"value":"0.01000000","address":"1ABoCkCDm7RVwzuapb1TALDNaEDSvP91D8","type":"pubkeyhash","script":"OP_DUP OP_HASH160 64c3dc0cf1cd778ed53e88e576ebd3ff87f0b37b OP_EQUALVERIFY OP_CHECKSIG"},{"output_no":1,"value":"300.00000000","address":"1BPUHdEzaJLz9VBT2d3hivSYEJALHmzrGa","type":"pubkeyhash","script":"OP_DUP OP_HASH160 71f12fcdbfd38aa9f76ce9aaf287a7eb6a2fa6ed OP_EQUALVERIFY OP_CHECKSIG"}],"tx_hex":"0100000006283bde0dc35652a830e94b52c4a335b19a220391b195b5899ea0ad97d70f63ea010000008b483045022075dca686b5fb775cb2dbf289231ee358f633d5882dfbadaced6ccbac8f3f4391022100d249ae93ad123c6d6180d076b717f324902d880956cf77fb21e485888ac931f7014104c4d3d61d2b198bb70c6b2ecd16517682426a21a3a07bfb11f0fb9fe2fc78f0665734fd03615de28cce6ae4c4c5712dee13cec6e3dff836c786d590c43024552cffffffff682292cb6816a79004e9f95c86faa0bc49f45427a568a308e86e0ee8cabe9786000000008b4830450220157dcb54113b61b92b92190fc5bae8836addb14b9728bead7a1ef57f169b8174022100adddd2cce36b16bddd6cb2fecebd307e74f830be69969e4e6ccc3a548668ca7e0141040905de5927a2b012c29e1045e0411291db61eaace69149b77897e08b8b34f6a96af0a457819024598771d10732e3fcf61daa4314f4d1a26fe8fafc0aefd49990ffffffffc1903ec4e8528ccdd47aff03d3788a90f8ea36685d8f12aec9b7402eea82562f010000008b48304502205a0f7ea7f131767d389675c8cd4e8644914e9cf8830d8e24a14bf4a7015107b1022100e7890dd629c66fa4a781e91927acebf1199a5546cbbacf305811442b3a46eb53014104a5e7d58d6b7b82b9c5a88646c6d3792ccd405b7d6a4799a43c43297c8b38951d261c835ccaaea6e1b4d5e4d5f429d0b7ccc802ec11d9ce5c9e4a00b111453a05ffffffff6b4413e73887cba5a86dd48137e832cf188e39c474ce466568a69cef31b7b4ff010000008b4830450221009a8687e92bd45fef7745b4b148c3383ca496cad4ee715b5a9c0d58f898430b050220727a0c6d79eb00d6eae55cc16797e5feec077ccbfba1de2bc0cf45f8e0bcfd2e0141045f6f0323e6379038fbfe06583f88f43b83851597e44be54158d49c8d012f401219e2ae35721a7abefdf573df4e348ff08c2e0c3e4964ce2ebbe7a081676784dbffffffff643d45402da734f1f5db5236b0de7024803fd91c2aee30ab1456e87b57872231010000008b48304502205e86c36a983a88030f5170c42689b4faa8163721db01d87750dcabc0c642f92702210086e76a64c5e3ee72dc1cc99443059332e37bf42a518c3f03e825edf9506a8bd6014104bced6be7db7d2841877d0bd39b98808670021bb3b6ec2fc9d85bf890c415e18ec40003eb676849572233bd79b5d935323bce3e47147a930cdda3778e61cad6dfffffffffd5b2d0b20434d982612ff60f36b8ed20b96b83b7b8f19846048bd40032dc136a010000008b48304502203241f475e55af2608979382b4419e22e0333379918356705414c15cfdb90b6c2022100ffda7fb68231ef00fb948077fc5fceff943c0578c62533bad1c6ba2a4af289e0014104ca17c99819c26d60b6e2331732ebaacfac44a919f51e599658164d537c136c24351dac7fa835bf5e1567d4efca2bc8f34cc4c39722d0336a3801b9224bea4562ffffffff0240420f00000000001976a91464c3dc0cf1cd778ed53e88e576ebd3ff87f0b37b88ac00ac23fc060000001976a91471f12fcdbfd38aa9f76ce9aaf287a7eb6a2fa6ed88ac00000000","size":1158,"version":1,"locktime":0}}
